{
  "contractName": "Erc721",
  "abi": [
    {
      "inputs": [],
      "stateMutability": "nonpayable",
      "type": "constructor"
    },
    {
      "anonymous": false,
      "inputs": [
        {
          "indexed": true,
          "internalType": "address",
          "name": "owner",
          "type": "address"
        },
        {
          "indexed": true,
          "internalType": "address",
          "name": "approved",
          "type": "address"
        },
        {
          "indexed": true,
          "internalType": "uint256",
          "name": "tokenId",
          "type": "uint256"
        }
      ],
      "name": "Approval",
      "type": "event"
    },
    {
      "anonymous": false,
      "inputs": [
        {
          "indexed": true,
          "internalType": "address",
          "name": "owner",
          "type": "address"
        },
        {
          "indexed": true,
          "internalType": "address",
          "name": "operator",
          "type": "address"
        },
        {
          "indexed": false,
          "internalType": "bool",
          "name": "approved",
          "type": "bool"
        }
      ],
      "name": "ApprovalForAll",
      "type": "event"
    },
    {
      "anonymous": false,
      "inputs": [
        {
          "indexed": true,
          "internalType": "address",
          "name": "previousOwner",
          "type": "address"
        },
        {
          "indexed": true,
          "internalType": "address",
          "name": "newOwner",
          "type": "address"
        }
      ],
      "name": "OwnershipTransferred",
      "type": "event"
    },
    {
      "anonymous": false,
      "inputs": [
        {
          "indexed": true,
          "internalType": "address",
          "name": "from",
          "type": "address"
        },
        {
          "indexed": true,
          "internalType": "address",
          "name": "to",
          "type": "address"
        },
        {
          "indexed": true,
          "internalType": "uint256",
          "name": "tokenId",
          "type": "uint256"
        }
      ],
      "name": "Transfer",
      "type": "event"
    },
    {
      "inputs": [
        {
          "internalType": "address",
          "name": "to",
          "type": "address"
        },
        {
          "internalType": "uint256",
          "name": "tokenId",
          "type": "uint256"
        }
      ],
      "name": "approve",
      "outputs": [],
      "stateMutability": "nonpayable",
      "type": "function"
    },
    {
      "inputs": [
        {
          "internalType": "address",
          "name": "owner",
          "type": "address"
        }
      ],
      "name": "balanceOf",
      "outputs": [
        {
          "internalType": "uint256",
          "name": "",
          "type": "uint256"
        }
      ],
      "stateMutability": "view",
      "type": "function",
      "constant": true
    },
    {
      "inputs": [
        {
          "internalType": "uint256",
          "name": "tokenId",
          "type": "uint256"
        }
      ],
      "name": "getApproved",
      "outputs": [
        {
          "internalType": "address",
          "name": "",
          "type": "address"
        }
      ],
      "stateMutability": "view",
      "type": "function",
      "constant": true
    },
    {
      "inputs": [
        {
          "internalType": "string",
          "name": "",
          "type": "string"
        }
      ],
      "name": "getToken",
      "outputs": [
        {
          "internalType": "uint256",
          "name": "",
          "type": "uint256"
        }
      ],
      "stateMutability": "view",
      "type": "function",
      "constant": true
    },
    {
      "inputs": [
        {
          "internalType": "address",
          "name": "owner",
          "type": "address"
        },
        {
          "internalType": "address",
          "name": "operator",
          "type": "address"
        }
      ],
      "name": "isApprovedForAll",
      "outputs": [
        {
          "internalType": "bool",
          "name": "",
          "type": "bool"
        }
      ],
      "stateMutability": "view",
      "type": "function",
      "constant": true
    },
    {
      "inputs": [],
      "name": "name",
      "outputs": [
        {
          "internalType": "string",
          "name": "",
          "type": "string"
        }
      ],
      "stateMutability": "view",
      "type": "function",
      "constant": true
    },
    {
      "inputs": [],
      "name": "nftPrice",
      "outputs": [
        {
          "internalType": "uint256",
          "name": "",
          "type": "uint256"
        }
      ],
      "stateMutability": "view",
      "type": "function",
      "constant": true
    },
    {
      "inputs": [],
      "name": "owner",
      "outputs": [
        {
          "internalType": "address",
          "name": "",
          "type": "address"
        }
      ],
      "stateMutability": "view",
      "type": "function",
      "constant": true
    },
    {
      "inputs": [
        {
          "internalType": "uint256",
          "name": "tokenId",
          "type": "uint256"
        }
      ],
      "name": "ownerOf",
      "outputs": [
        {
          "internalType": "address",
          "name": "",
          "type": "address"
        }
      ],
      "stateMutability": "view",
      "type": "function",
      "constant": true
    },
    {
      "inputs": [],
      "name": "renounceOwnership",
      "outputs": [],
      "stateMutability": "nonpayable",
      "type": "function"
    },
    {
      "inputs": [
        {
          "internalType": "address",
          "name": "from",
          "type": "address"
        },
        {
          "internalType": "address",
          "name": "to",
          "type": "address"
        },
        {
          "internalType": "uint256",
          "name": "tokenId",
          "type": "uint256"
        }
      ],
      "name": "safeTransferFrom",
      "outputs": [],
      "stateMutability": "nonpayable",
      "type": "function"
    },
    {
      "inputs": [
        {
          "internalType": "address",
          "name": "from",
          "type": "address"
        },
        {
          "internalType": "address",
          "name": "to",
          "type": "address"
        },
        {
          "internalType": "uint256",
          "name": "tokenId",
          "type": "uint256"
        },
        {
          "internalType": "bytes",
          "name": "_data",
          "type": "bytes"
        }
      ],
      "name": "safeTransferFrom",
      "outputs": [],
      "stateMutability": "nonpayable",
      "type": "function"
    },
    {
      "inputs": [
        {
          "internalType": "address",
          "name": "operator",
          "type": "address"
        },
        {
          "internalType": "bool",
          "name": "approved",
          "type": "bool"
        }
      ],
      "name": "setApprovalForAll",
      "outputs": [],
      "stateMutability": "nonpayable",
      "type": "function"
    },
    {
      "inputs": [
        {
          "internalType": "bytes4",
          "name": "interfaceId",
          "type": "bytes4"
        }
      ],
      "name": "supportsInterface",
      "outputs": [
        {
          "internalType": "bool",
          "name": "",
          "type": "bool"
        }
      ],
      "stateMutability": "view",
      "type": "function",
      "constant": true
    },
    {
      "inputs": [],
      "name": "symbol",
      "outputs": [
        {
          "internalType": "string",
          "name": "",
          "type": "string"
        }
      ],
      "stateMutability": "view",
      "type": "function",
      "constant": true
    },
    {
      "inputs": [],
      "name": "token",
      "outputs": [
        {
          "internalType": "contract IERC20",
          "name": "",
          "type": "address"
        }
      ],
      "stateMutability": "view",
      "type": "function",
      "constant": true
    },
    {
      "inputs": [
        {
          "internalType": "uint256",
          "name": "tokenId",
          "type": "uint256"
        }
      ],
      "name": "tokenURI",
      "outputs": [
        {
          "internalType": "string",
          "name": "",
          "type": "string"
        }
      ],
      "stateMutability": "view",
      "type": "function",
      "constant": true
    },
    {
      "inputs": [
        {
          "internalType": "address",
          "name": "from",
          "type": "address"
        },
        {
          "internalType": "address",
          "name": "to",
          "type": "address"
        },
        {
          "internalType": "uint256",
          "name": "tokenId",
          "type": "uint256"
        }
      ],
      "name": "transferFrom",
      "outputs": [],
      "stateMutability": "nonpayable",
      "type": "function"
    },
    {
      "inputs": [
        {
          "internalType": "address",
          "name": "newOwner",
          "type": "address"
        }
      ],
      "name": "transferOwnership",
      "outputs": [],
      "stateMutability": "nonpayable",
      "type": "function"
    },
    {
      "inputs": [
        {
          "internalType": "address",
          "name": "recipient",
          "type": "address"
        },
        {
          "internalType": "string",
          "name": "tokenURI",
          "type": "string"
        }
      ],
      "name": "mintNFT",
      "outputs": [
        {
          "internalType": "uint256",
          "name": "",
          "type": "uint256"
        }
      ],
      "stateMutability": "nonpayable",
      "type": "function"
    },
    {
      "inputs": [
        {
          "internalType": "address",
          "name": "tokenAddress",
          "type": "address"
        }
      ],
      "name": "setToken",
      "outputs": [
        {
          "internalType": "bool",
          "name": "",
          "type": "bool"
        }
      ],
      "stateMutability": "nonpayable",
      "type": "function"
    },
    {
      "inputs": [
        {
          "internalType": "string",
          "name": "tokenUri",
          "type": "string"
        }
      ],
      "name": "checkTokenId",
      "outputs": [
        {
          "internalType": "uint256",
          "name": "",
          "type": "uint256"
        }
      ],
      "stateMutability": "view",
      "type": "function",
      "constant": true
    }
  ],
  "bytecode": "0x60806040523480156200001157600080fd5b506040518060400160405280600681526020017f4d794e46547300000000000000000000000000000000000000000000000000008152506040518060400160405280600481526020017f4d4e465400000000000000000000000000000000000000000000000000000000815250816000908051906020019062000096929190620001b6565b508060019080519060200190620000af929190620001b6565b505050620000d2620000c6620000e860201b60201c565b620000f060201b60201c565b68056bc75e2d63100000600a81905550620002cb565b600033905090565b6000600760009054906101000a900473ffffffffffffffffffffffffffffffffffffffff16905081600760006101000a81548173ffffffffffffffffffffffffffffffffffffffff021916908373ffffffffffffffffffffffffffffffffffffffff1602179055508173ffffffffffffffffffffffffffffffffffffffff168173ffffffffffffffffffffffffffffffffffffffff167f8be0079c531659141344cd1fd0a4f28419497f9722a3daafe3b4186f6b6457e060405160405180910390a35050565b828054620001c49062000295565b90600052602060002090601f016020900481019282620001e8576000855562000234565b82601f106200020357805160ff191683800117855562000234565b8280016001018555821562000234579182015b828111156200023357825182559160200191906001019062000216565b5b50905062000243919062000247565b5090565b5b808211156200026257600081600090555060010162000248565b5090565b7f4e487b7100000000000000000000000000000000000000000000000000000000600052602260045260246000fd5b60006002820490506001821680620002ae57607f821691505b60208210811415620002c557620002c462000266565b5b50919050565b61357280620002db6000396000f3fe608060405234801561001057600080fd5b50600436106101425760003560e01c80638da5cb5b116100b8578063c1733f681161007c578063c1733f6814610375578063c87b56dd146103a5578063e985e9c5146103d5578063eacabe1414610405578063f2fde38b14610435578063fc0c546a1461045157610142565b80638da5cb5b146102d157806395d89b41146102ef578063a22cb4651461030d578063b88d4fde14610329578063c01c08c71461034557610142565b8063144fa6d71161010a578063144fa6d7146101ff57806323b872dd1461022f57806342842e0e1461024b5780636352211e1461026757806370a0823114610297578063715018a6146102c757610142565b806301ffc9a71461014757806306fdde0314610177578063081812fc14610195578063095ea7b3146101c55780630d39fc81146101e1575b600080fd5b610161600480360381019061015c9190612041565b61046f565b60405161016e9190612089565b60405180910390f35b61017f610551565b60405161018c919061213d565b60405180910390f35b6101af60048036038101906101aa9190612195565b6105e3565b6040516101bc9190612203565b60405180910390f35b6101df60048036038101906101da919061224a565b610668565b005b6101e9610780565b6040516101f69190612299565b60405180910390f35b610219600480360381019061021491906122b4565b610786565b6040516102269190612089565b60405180910390f35b610249600480360381019061024491906122e1565b610888565b005b610265600480360381019061026091906122e1565b6108e8565b005b610281600480360381019061027c9190612195565b610908565b60405161028e9190612203565b60405180910390f35b6102b160048036038101906102ac91906122b4565b6109ba565b6040516102be9190612299565b60405180910390f35b6102cf610a72565b005b6102d9610afa565b6040516102e69190612203565b60405180910390f35b6102f7610b24565b604051610304919061213d565b60405180910390f35b61032760048036038101906103229190612360565b610bb6565b005b610343600480360381019061033e91906124d5565b610bcc565b005b61035f600480360381019061035a91906125f9565b610c2e565b60405161036c9190612299565b60405180910390f35b61038f600480360381019061038a91906125f9565b610c56565b60405161039c9190612299565b60405180910390f35b6103bf60048036038101906103ba9190612195565b610c84565b6040516103cc919061213d565b60405180910390f35b6103ef60048036038101906103ea9190612642565b610dd6565b6040516103fc9190612089565b60405180910390f35b61041f600480360381019061041a9190612682565b610e6a565b60405161042c9190612299565b60405180910390f35b61044f600480360381019061044a91906122b4565b61108f565b005b610459611187565b604051610466919061273d565b60405180910390f35b60007f80ac58cd000000000000000000000000000000000000000000000000000000007bffffffffffffffffffffffffffffffffffffffffffffffffffffffff1916827bffffffffffffffffffffffffffffffffffffffffffffffffffffffff1916148061053a57507f5b5e139f000000000000000000000000000000000000000000000000000000007bffffffffffffffffffffffffffffffffffffffffffffffffffffffff1916827bffffffffffffffffffffffffffffffffffffffffffffffffffffffff1916145b8061054a5750610549826111ad565b5b9050919050565b60606000805461056090612787565b80601f016020809104026020016040519081016040528092919081815260200182805461058c90612787565b80156105d95780601f106105ae576101008083540402835291602001916105d9565b820191906000526020600020905b8154815290600101906020018083116105bc57829003601f168201915b5050505050905090565b60006105ee82611217565b61062d576040517f08c379a00000000000000000000000000000000000000000000000000000000081526004016106249061282b565b60405180910390fd5b6004600083815260200190815260200160002060009054906101000a900473ffffffffffffffffffffffffffffffffffffffff169050919050565b600061067382610908565b90508073ffffffffffffffffffffffffffffffffffffffff168373ffffffffffffffffffffffffffffffffffffffff1614156106e4576040517f08c379a00000000000000000000000000000000000000000000000000000000081526004016106db906128bd565b60405180910390fd5b8073ffffffffffffffffffffffffffffffffffffffff16610703611283565b73ffffffffffffffffffffffffffffffffffffffff16148061073257506107318161072c611283565b610dd6565b5b610771576040517f08c379a00000000000000000000000000000000000000000000000000000000081526004016107689061294f565b60405180910390fd5b61077b838361128b565b505050565b600a5481565b6000610790611283565b73ffffffffffffffffffffffffffffffffffffffff166107ae610afa565b73ffffffffffffffffffffffffffffffffffffffff1614610804576040517f08c379a00000000000000000000000000000000000000000000000000000000081526004016107fb906129bb565b60405180910390fd5b600073ffffffffffffffffffffffffffffffffffffffff168273ffffffffffffffffffffffffffffffffffffffff16141561083e57600080fd5b81600960006101000a81548173ffffffffffffffffffffffffffffffffffffffff021916908373ffffffffffffffffffffffffffffffffffffffff16021790555060019050919050565b610899610893611283565b82611344565b6108d8576040517f08c379a00000000000000000000000000000000000000000000000000000000081526004016108cf90612a4d565b60405180910390fd5b6108e3838383611422565b505050565b61090383838360405180602001604052806000815250610bcc565b505050565b6000806002600084815260200190815260200160002060009054906101000a900473ffffffffffffffffffffffffffffffffffffffff169050600073ffffffffffffffffffffffffffffffffffffffff168173ffffffffffffffffffffffffffffffffffffffff1614156109b1576040517f08c379a00000000000000000000000000000000000000000000000000000000081526004016109a890612adf565b60405180910390fd5b80915050919050565b60008073ffffffffffffffffffffffffffffffffffffffff168273ffffffffffffffffffffffffffffffffffffffff161415610a2b576040517f08c379a0000000000000000000000000000000000000000000000000000000008152600401610a2290612b71565b60405180910390fd5b600360008373ffffffffffffffffffffffffffffffffffffffff1673ffffffffffffffffffffffffffffffffffffffff168152602001908152602001600020549050919050565b610a7a611283565b73ffffffffffffffffffffffffffffffffffffffff16610a98610afa565b73ffffffffffffffffffffffffffffffffffffffff1614610aee576040517f08c379a0000000000000000000000000000000000000000000000000000000008152600401610ae5906129bb565b60405180910390fd5b610af8600061167e565b565b6000600760009054906101000a900473ffffffffffffffffffffffffffffffffffffffff16905090565b606060018054610b3390612787565b80601f0160208091040260200160405190810160405280929190818152602001828054610b5f90612787565b8015610bac5780601f10610b8157610100808354040283529160200191610bac565b820191906000526020600020905b815481529060010190602001808311610b8f57829003601f168201915b5050505050905090565b610bc8610bc1611283565b8383611744565b5050565b610bdd610bd7611283565b83611344565b610c1c576040517f08c379a0000000000000000000000000000000000000000000000000000000008152600401610c1390612a4d565b60405180910390fd5b610c28848484846118b1565b50505050565b6000600b82604051610c409190612bcd565b9081526020016040518091039020549050919050565b600b818051602081018201805184825260208301602085012081835280955050505050506000915090505481565b6060610c8f82611217565b610cce576040517f08c379a0000000000000000000000000000000000000000000000000000000008152600401610cc590612c56565b60405180910390fd5b6000600660008481526020019081526020016000208054610cee90612787565b80601f0160208091040260200160405190810160405280929190818152602001828054610d1a90612787565b8015610d675780601f10610d3c57610100808354040283529160200191610d67565b820191906000526020600020905b815481529060010190602001808311610d4a57829003601f168201915b505050505090506000610d7861190d565b9050600081511415610d8e578192505050610dd1565b600082511115610dc3578082604051602001610dab929190612c76565b60405160208183030381529060405292505050610dd1565b610dcc84611924565b925050505b919050565b6000600560008473ffffffffffffffffffffffffffffffffffffffff1673ffffffffffffffffffffffffffffffffffffffff16815260200190815260200160002060008373ffffffffffffffffffffffffffffffffffffffff1673ffffffffffffffffffffffffffffffffffffffff16815260200190815260200160002060009054906101000a900460ff16905092915050565b6000610e74611283565b73ffffffffffffffffffffffffffffffffffffffff16610e92610afa565b73ffffffffffffffffffffffffffffffffffffffff1614610ee8576040517f08c379a0000000000000000000000000000000000000000000000000000000008152600401610edf906129bb565b60405180910390fd5b600a54600960009054906101000a900473ffffffffffffffffffffffffffffffffffffffff1673ffffffffffffffffffffffffffffffffffffffff166370a08231856040518263ffffffff1660e01b8152600401610f469190612203565b602060405180830381865afa158015610f63573d6000803e3d6000fd5b505050506040513d601f19601f82011682018060405250810190610f879190612caf565b11610f9157600080fd5b600960009054906101000a900473ffffffffffffffffffffffffffffffffffffffff1673ffffffffffffffffffffffffffffffffffffffff166323b872dd8433600a546040518463ffffffff1660e01b8152600401610ff293929190612cdc565b6020604051808303816000875af1158015611011573d6000803e3d6000fd5b505050506040513d601f19601f820116820180604052508101906110359190612d28565b5061104060086119cb565b600061104c60086119e1565b905061105884826119ef565b6110628184611bbd565b80600b846040516110739190612bcd565b9081526020016040518091039020819055508091505092915050565b611097611283565b73ffffffffffffffffffffffffffffffffffffffff166110b5610afa565b73ffffffffffffffffffffffffffffffffffffffff161461110b576040517f08c379a0000000000000000000000000000000000000000000000000000000008152600401611102906129bb565b60405180910390fd5b600073ffffffffffffffffffffffffffffffffffffffff168173ffffffffffffffffffffffffffffffffffffffff16141561117b576040517f08c379a000000000000000000000000000000000000000000000000000000000815260040161117290612dc7565b60405180910390fd5b6111848161167e565b50565b600960009054906101000a900473ffffffffffffffffffffffffffffffffffffffff1681565b60007f01ffc9a7000000000000000000000000000000000000000000000000000000007bffffffffffffffffffffffffffffffffffffffffffffffffffffffff1916827bffffffffffffffffffffffffffffffffffffffffffffffffffffffff1916149050919050565b60008073ffffffffffffffffffffffffffffffffffffffff166002600084815260200190815260200160002060009054906101000a900473ffffffffffffffffffffffffffffffffffffffff1673ffffffffffffffffffffffffffffffffffffffff1614159050919050565b600033905090565b816004600083815260200190815260200160002060006101000a81548173ffffffffffffffffffffffffffffffffffffffff021916908373ffffffffffffffffffffffffffffffffffffffff160217905550808273ffffffffffffffffffffffffffffffffffffffff166112fe83610908565b73ffffffffffffffffffffffffffffffffffffffff167f8c5be1e5ebec7d5bd14f71427d1e84f3dd0314c0f7b2291e5b200ac8c7c3b92560405160405180910390a45050565b600061134f82611217565b61138e576040517f08c379a000000000000000000000000000000000000000000000000000000000815260040161138590612e59565b60405180910390fd5b600061139983610908565b90508073ffffffffffffffffffffffffffffffffffffffff168473ffffffffffffffffffffffffffffffffffffffff16148061140857508373ffffffffffffffffffffffffffffffffffffffff166113f0846105e3565b73ffffffffffffffffffffffffffffffffffffffff16145b8061141957506114188185610dd6565b5b91505092915050565b8273ffffffffffffffffffffffffffffffffffffffff1661144282610908565b73ffffffffffffffffffffffffffffffffffffffff1614611498576040517f08c379a000000000000000000000000000000000000000000000000000000000815260040161148f90612eeb565b60405180910390fd5b600073ffffffffffffffffffffffffffffffffffffffff168273ffffffffffffffffffffffffffffffffffffffff161415611508576040517f08c379a00000000000000000000000000000000000000000000000000000000081526004016114ff90612f7d565b60405180910390fd5b611513838383611c31565b61151e60008261128b565b6001600360008573ffffffffffffffffffffffffffffffffffffffff1673ffffffffffffffffffffffffffffffffffffffff168152602001908152602001600020600082825461156e9190612fcc565b925050819055506001600360008473ffffffffffffffffffffffffffffffffffffffff1673ffffffffffffffffffffffffffffffffffffffff16815260200190815260200160002060008282546115c59190613000565b92505081905550816002600083815260200190815260200160002060006101000a81548173ffffffffffffffffffffffffffffffffffffffff021916908373ffffffffffffffffffffffffffffffffffffffff160217905550808273ffffffffffffffffffffffffffffffffffffffff168473ffffffffffffffffffffffffffffffffffffffff167fddf252ad1be2c89b69c2b068fc378daa952ba7f163c4a11628f55a4df523b3ef60405160405180910390a4505050565b6000600760009054906101000a900473ffffffffffffffffffffffffffffffffffffffff16905081600760006101000a81548173ffffffffffffffffffffffffffffffffffffffff021916908373ffffffffffffffffffffffffffffffffffffffff1602179055508173ffffffffffffffffffffffffffffffffffffffff168173ffffffffffffffffffffffffffffffffffffffff167f8be0079c531659141344cd1fd0a4f28419497f9722a3daafe3b4186f6b6457e060405160405180910390a35050565b8173ffffffffffffffffffffffffffffffffffffffff168373ffffffffffffffffffffffffffffffffffffffff1614156117b3576040517f08c379a00000000000000000000000000000000000000000000000000000000081526004016117aa906130a2565b60405180910390fd5b80600560008573ffffffffffffffffffffffffffffffffffffffff1673ffffffffffffffffffffffffffffffffffffffff16815260200190815260200160002060008473ffffffffffffffffffffffffffffffffffffffff1673ffffffffffffffffffffffffffffffffffffffff16815260200190815260200160002060006101000a81548160ff0219169083151502179055508173ffffffffffffffffffffffffffffffffffffffff168373ffffffffffffffffffffffffffffffffffffffff167f17307eab39ab6107e8899845ad3d59bd9653f200f220920489ca2b5937696c31836040516118a49190612089565b60405180910390a3505050565b6118bc848484611422565b6118c884848484611c36565b611907576040517f08c379a00000000000000000000000000000000000000000000000000000000081526004016118fe90613134565b60405180910390fd5b50505050565b606060405180602001604052806000815250905090565b606061192f82611217565b61196e576040517f08c379a0000000000000000000000000000000000000000000000000000000008152600401611965906131c6565b60405180910390fd5b600061197861190d565b9050600081511161199857604051806020016040528060008152506119c3565b806119a284611dbe565b6040516020016119b3929190612c76565b6040516020818303038152906040525b915050919050565b6001816000016000828254019250508190555050565b600081600001549050919050565b600073ffffffffffffffffffffffffffffffffffffffff168273ffffffffffffffffffffffffffffffffffffffff161415611a5f576040517f08c379a0000000000000000000000000000000000000000000000000000000008152600401611a5690613232565b60405180910390fd5b611a6881611217565b15611aa8576040517f08c379a0000000000000000000000000000000000000000000000000000000008152600401611a9f9061329e565b60405180910390fd5b611ab460008383611c31565b6001600360008473ffffffffffffffffffffffffffffffffffffffff1673ffffffffffffffffffffffffffffffffffffffff1681526020019081526020016000206000828254611b049190613000565b92505081905550816002600083815260200190815260200160002060006101000a81548173ffffffffffffffffffffffffffffffffffffffff021916908373ffffffffffffffffffffffffffffffffffffffff160217905550808273ffffffffffffffffffffffffffffffffffffffff16600073ffffffffffffffffffffffffffffffffffffffff167fddf252ad1be2c89b69c2b068fc378daa952ba7f163c4a11628f55a4df523b3ef60405160405180910390a45050565b611bc682611217565b611c05576040517f08c379a0000000000000000000000000000000000000000000000000000000008152600401611bfc90613330565b60405180910390fd5b80600660008481526020019081526020016000209080519060200190611c2c929190611f32565b505050565b505050565b6000611c578473ffffffffffffffffffffffffffffffffffffffff16611f1f565b15611db1578373ffffffffffffffffffffffffffffffffffffffff1663150b7a02611c80611283565b8786866040518563ffffffff1660e01b8152600401611ca294939291906133a5565b6020604051808303816000875af1925050508015611cde57506040513d601f19601f82011682018060405250810190611cdb9190613406565b60015b611d61573d8060008114611d0e576040519150601f19603f3d011682016040523d82523d6000602084013e611d13565b606091505b50600081511415611d59576040517f08c379a0000000000000000000000000000000000000000000000000000000008152600401611d5090613134565b60405180910390fd5b805181602001fd5b63150b7a0260e01b7bffffffffffffffffffffffffffffffffffffffffffffffffffffffff1916817bffffffffffffffffffffffffffffffffffffffffffffffffffffffff191614915050611db6565b600190505b949350505050565b60606000821415611e06576040518060400160405280600181526020017f30000000000000000000000000000000000000000000000000000000000000008152509050611f1a565b600082905060005b60008214611e38578080611e2190613433565b915050600a82611e3191906134ab565b9150611e0e565b60008167ffffffffffffffff811115611e5457611e536123aa565b5b6040519080825280601f01601f191660200182016040528015611e865781602001600182028036833780820191505090505b5090505b60008514611f1357600182611e9f9190612fcc565b9150600a85611eae91906134dc565b6030611eba9190613000565b60f81b818381518110611ed057611ecf61350d565b5b60200101907effffffffffffffffffffffffffffffffffffffffffffffffffffffffffffff1916908160001a905350600a85611f0c91906134ab565b9450611e8a565b8093505050505b919050565b600080823b905060008111915050919050565b828054611f3e90612787565b90600052602060002090601f016020900481019282611f605760008555611fa7565b82601f10611f7957805160ff1916838001178555611fa7565b82800160010185558215611fa7579182015b82811115611fa6578251825591602001919060010190611f8b565b5b509050611fb49190611fb8565b5090565b5b80821115611fd1576000816000905550600101611fb9565b5090565b6000604051905090565b600080fd5b600080fd5b60007fffffffff0000000000000000000000000000000000000000000000000000000082169050919050565b61201e81611fe9565b811461202957600080fd5b50565b60008135905061203b81612015565b92915050565b60006020828403121561205757612056611fdf565b5b60006120658482850161202c565b91505092915050565b60008115159050919050565b6120838161206e565b82525050565b600060208201905061209e600083018461207a565b92915050565b600081519050919050565b600082825260208201905092915050565b60005b838110156120de5780820151818401526020810190506120c3565b838111156120ed576000848401525b50505050565b6000601f19601f8301169050919050565b600061210f826120a4565b61211981856120af565b93506121298185602086016120c0565b612132816120f3565b840191505092915050565b600060208201905081810360008301526121578184612104565b905092915050565b6000819050919050565b6121728161215f565b811461217d57600080fd5b50565b60008135905061218f81612169565b92915050565b6000602082840312156121ab576121aa611fdf565b5b60006121b984828501612180565b91505092915050565b600073ffffffffffffffffffffffffffffffffffffffff82169050919050565b60006121ed826121c2565b9050919050565b6121fd816121e2565b82525050565b600060208201905061221860008301846121f4565b92915050565b612227816121e2565b811461223257600080fd5b50565b6000813590506122448161221e565b92915050565b6000806040838503121561226157612260611fdf565b5b600061226f85828601612235565b925050602061228085828601612180565b9150509250929050565b6122938161215f565b82525050565b60006020820190506122ae600083018461228a565b92915050565b6000602082840312156122ca576122c9611fdf565b5b60006122d884828501612235565b91505092915050565b6000806000606084860312156122fa576122f9611fdf565b5b600061230886828701612235565b935050602061231986828701612235565b925050604061232a86828701612180565b9150509250925092565b61233d8161206e565b811461234857600080fd5b50565b60008135905061235a81612334565b92915050565b6000806040838503121561237757612376611fdf565b5b600061238585828601612235565b92505060206123968582860161234b565b9150509250929050565b600080fd5b600080fd5b7f4e487b7100000000000000000000000000000000000000000000000000000000600052604160045260246000fd5b6123e2826120f3565b810181811067ffffffffffffffff82111715612401576124006123aa565b5b80604052505050565b6000612414611fd5565b905061242082826123d9565b919050565b600067ffffffffffffffff8211156124405761243f6123aa565b5b612449826120f3565b9050602081019050919050565b82818337600083830152505050565b600061247861247384612425565b61240a565b905082815260208101848484011115612494576124936123a5565b5b61249f848285612456565b509392505050565b600082601f8301126124bc576124bb6123a0565b5b81356124cc848260208601612465565b91505092915050565b600080600080608085870312156124ef576124ee611fdf565b5b60006124fd87828801612235565b945050602061250e87828801612235565b935050604061251f87828801612180565b925050606085013567ffffffffffffffff8111156125405761253f611fe4565b5b61254c878288016124a7565b91505092959194509250565b600067ffffffffffffffff821115612573576125726123aa565b5b61257c826120f3565b9050602081019050919050565b600061259c61259784612558565b61240a565b9050828152602081018484840111156125b8576125b76123a5565b5b6125c3848285612456565b509392505050565b600082601f8301126125e0576125df6123a0565b5b81356125f0848260208601612589565b91505092915050565b60006020828403121561260f5761260e611fdf565b5b600082013567ffffffffffffffff81111561262d5761262c611fe4565b5b612639848285016125cb565b91505092915050565b6000806040838503121561265957612658611fdf565b5b600061266785828601612235565b925050602061267885828601612235565b9150509250929050565b6000806040838503121561269957612698611fdf565b5b60006126a785828601612235565b925050602083013567ffffffffffffffff8111156126c8576126c7611fe4565b5b6126d4858286016125cb565b9150509250929050565b6000819050919050565b60006127036126fe6126f9846121c2565b6126de565b6121c2565b9050919050565b6000612715826126e8565b9050919050565b60006127278261270a565b9050919050565b6127378161271c565b82525050565b6000602082019050612752600083018461272e565b92915050565b7f4e487b7100000000000000000000000000000000000000000000000000000000600052602260045260246000fd5b6000600282049050600182168061279f57607f821691505b602082108114156127b3576127b2612758565b5b50919050565b7f4552433732313a20617070726f76656420717565727920666f72206e6f6e657860008201527f697374656e7420746f6b656e0000000000000000000000000000000000000000602082015250565b6000612815602c836120af565b9150612820826127b9565b604082019050919050565b6000602082019050818103600083015261284481612808565b9050919050565b7f4552433732313a20617070726f76616c20746f2063757272656e74206f776e6560008201527f7200000000000000000000000000000000000000000000000000000000000000602082015250565b60006128a76021836120af565b91506128b28261284b565b604082019050919050565b600060208201905081810360008301526128d68161289a565b9050919050565b7f4552433732313a20617070726f76652063616c6c6572206973206e6f74206f7760008201527f6e6572206e6f7220617070726f76656420666f7220616c6c0000000000000000602082015250565b60006129396038836120af565b9150612944826128dd565b604082019050919050565b600060208201905081810360008301526129688161292c565b9050919050565b7f4f776e61626c653a2063616c6c6572206973206e6f7420746865206f776e6572600082015250565b60006129a56020836120af565b91506129b08261296f565b602082019050919050565b600060208201905081810360008301526129d481612998565b9050919050565b7f4552433732313a207472616e736665722063616c6c6572206973206e6f74206f60008201527f776e6572206e6f7220617070726f766564000000000000000000000000000000602082015250565b6000612a376031836120af565b9150612a42826129db565b604082019050919050565b60006020820190508181036000830152612a6681612a2a565b9050919050565b7f4552433732313a206f776e657220717565727920666f72206e6f6e657869737460008201527f656e7420746f6b656e0000000000000000000000000000000000000000000000602082015250565b6000612ac96029836120af565b9150612ad482612a6d565b604082019050919050565b60006020820190508181036000830152612af881612abc565b9050919050565b7f4552433732313a2062616c616e636520717565727920666f7220746865207a6560008201527f726f206164647265737300000000000000000000000000000000000000000000602082015250565b6000612b5b602a836120af565b9150612b6682612aff565b604082019050919050565b60006020820190508181036000830152612b8a81612b4e565b9050919050565b600081905092915050565b6000612ba7826120a4565b612bb18185612b91565b9350612bc18185602086016120c0565b80840191505092915050565b6000612bd98284612b9c565b915081905092915050565b7f45524337323155524953746f726167653a2055524920717565727920666f722060008201527f6e6f6e6578697374656e7420746f6b656e000000000000000000000000000000602082015250565b6000612c406031836120af565b9150612c4b82612be4565b604082019050919050565b60006020820190508181036000830152612c6f81612c33565b9050919050565b6000612c828285612b9c565b9150612c8e8284612b9c565b91508190509392505050565b600081519050612ca981612169565b92915050565b600060208284031215612cc557612cc4611fdf565b5b6000612cd384828501612c9a565b91505092915050565b6000606082019050612cf160008301866121f4565b612cfe60208301856121f4565b612d0b604083018461228a565b949350505050565b600081519050612d2281612334565b92915050565b600060208284031215612d3e57612d3d611fdf565b5b6000612d4c84828501612d13565b91505092915050565b7f4f776e61626c653a206e6577206f776e657220697320746865207a65726f206160008201527f6464726573730000000000000000000000000000000000000000000000000000602082015250565b6000612db16026836120af565b9150612dbc82612d55565b604082019050919050565b60006020820190508181036000830152612de081612da4565b9050919050565b7f4552433732313a206f70657261746f7220717565727920666f72206e6f6e657860008201527f697374656e7420746f6b656e0000000000000000000000000000000000000000602082015250565b6000612e43602c836120af565b9150612e4e82612de7565b604082019050919050565b60006020820190508181036000830152612e7281612e36565b9050919050565b7f4552433732313a207472616e73666572206f6620746f6b656e2074686174206960008201527f73206e6f74206f776e0000000000000000000000000000000000000000000000602082015250565b6000612ed56029836120af565b9150612ee082612e79565b604082019050919050565b60006020820190508181036000830152612f0481612ec8565b9050919050565b7f4552433732313a207472616e7366657220746f20746865207a65726f2061646460008201527f7265737300000000000000000000000000000000000000000000000000000000602082015250565b6000612f676024836120af565b9150612f7282612f0b565b604082019050919050565b60006020820190508181036000830152612f9681612f5a565b9050919050565b7f4e487b7100000000000000000000000000000000000000000000000000000000600052601160045260246000fd5b6000612fd78261215f565b9150612fe28361215f565b925082821015612ff557612ff4612f9d565b5b828203905092915050565b600061300b8261215f565b91506130168361215f565b9250827fffffffffffffffffffffffffffffffffffffffffffffffffffffffffffffffff0382111561304b5761304a612f9d565b5b828201905092915050565b7f4552433732313a20617070726f766520746f2063616c6c657200000000000000600082015250565b600061308c6019836120af565b915061309782613056565b602082019050919050565b600060208201905081810360008301526130bb8161307f565b9050919050565b7f4552433732313a207472616e7366657220746f206e6f6e20455243373231526560008201527f63656976657220696d706c656d656e7465720000000000000000000000000000602082015250565b600061311e6032836120af565b9150613129826130c2565b604082019050919050565b6000602082019050818103600083015261314d81613111565b9050919050565b7f4552433732314d657461646174613a2055524920717565727920666f72206e6f60008201527f6e6578697374656e7420746f6b656e0000000000000000000000000000000000602082015250565b60006131b0602f836120af565b91506131bb82613154565b604082019050919050565b600060208201905081810360008301526131df816131a3565b9050919050565b7f4552433732313a206d696e7420746f20746865207a65726f2061646472657373600082015250565b600061321c6020836120af565b9150613227826131e6565b602082019050919050565b6000602082019050818103600083015261324b8161320f565b9050919050565b7f4552433732313a20746f6b656e20616c7265616479206d696e74656400000000600082015250565b6000613288601c836120af565b915061329382613252565b602082019050919050565b600060208201905081810360008301526132b78161327b565b9050919050565b7f45524337323155524953746f726167653a2055524920736574206f66206e6f6e60008201527f6578697374656e7420746f6b656e000000000000000000000000000000000000602082015250565b600061331a602e836120af565b9150613325826132be565b604082019050919050565b600060208201905081810360008301526133498161330d565b9050919050565b600081519050919050565b600082825260208201905092915050565b600061337782613350565b613381818561335b565b93506133918185602086016120c0565b61339a816120f3565b840191505092915050565b60006080820190506133ba60008301876121f4565b6133c760208301866121f4565b6133d4604083018561228a565b81810360608301526133e6818461336c565b905095945050505050565b60008151905061340081612015565b92915050565b60006020828403121561341c5761341b611fdf565b5b600061342a848285016133f1565b91505092915050565b600061343e8261215f565b91507fffffffffffffffffffffffffffffffffffffffffffffffffffffffffffffffff82141561347157613470612f9d565b5b600182019050919050565b7f4e487b7100000000000000000000000000000000000000000000000000000000600052601260045260246000fd5b60006134b68261215f565b91506134c18361215f565b9250826134d1576134d061347c565b5b828204905092915050565b60006134e78261215f565b91506134f28361215f565b9250826135025761350161347c565b5b828206905092915050565b7f4e487b7100000000000000000000000000000000000000000000000000000000600052603260045260246000fdfea26469706673582212205c76052f8aac85a249af420880f6a331535dcbeac1fc6097e02aa1a0eb7fc19b64736f6c634300080b0033",
  "immutableReferences": {},
  "source": "// SPDX-License-Identifier: MIT\npragma solidity ^0.8.11;\n\nimport \"@openzeppelin/contracts/token/ERC721/ERC721.sol\";\nimport \"@openzeppelin/contracts/utils/Counters.sol\";\nimport \"@openzeppelin/contracts/access/Ownable.sol\";\nimport \"@openzeppelin/contracts/token/ERC721/extensions/ERC721URIStorage.sol\";\nimport \"@openzeppelin/contracts/token/ERC721/extensions/ERC721Enumerable.sol\";\nimport \"@openzeppelin/contracts/token/ERC20/IERC20.sol\";\n\ncontract Erc721 is ERC721URIStorage, Ownable {\n    using Counters for Counters.Counter;\n    Counters.Counter private _tokenIds;\n    IERC20 public token;\n    uint256 public nftPrice;\n    mapping (string => uint256) public getToken;\n\n    constructor() ERC721(\"MyNFTs\", \"MNFT\") {\n\n        nftPrice = 100e18;\n    }\n\n    function mintNFT(address recipient, string memory tokenURI) public onlyOwner returns (uint256) {\n\n        require(token.balanceOf(recipient) > nftPrice);\n\n        token.transferFrom(recipient, msg.sender, nftPrice);\n\n        _tokenIds.increment();\n        uint256 newItemId = _tokenIds.current();\n        _mint(recipient, newItemId);\n        _setTokenURI(newItemId, tokenURI);\n        getToken[tokenURI] = newItemId;\n\n        return newItemId;\n    }\n\n    function setToken (address tokenAddress) public onlyOwner returns (bool) {\n        require(tokenAddress != address(0x0));\n        token = IERC20(tokenAddress);\n        return true;\n    }\n    function checkTokenId(string memory tokenUri) public view returns(uint256){\n        return getToken[tokenUri];\n    }\n}",
  "sourcePath": "/Users/brianson/Documents/BEB_Project3/BEB_01_final1/daemon/contracts/Erc721.sol",
  "compiler": {
    "name": "solc",
    "version": "0.8.11+commit.d7f03943.Emscripten.clang"
  },
  "schemaVersion": "3.4.4",
  "updatedAt": "2022-01-10T05:46:10.988Z",
  "networkType": "ethereum",
  "devdoc": {
    "kind": "dev",
    "methods": {
      "approve(address,uint256)": {
        "details": "See {IERC721-approve}."
      },
      "balanceOf(address)": {
        "details": "See {IERC721-balanceOf}."
      },
      "getApproved(uint256)": {
        "details": "See {IERC721-getApproved}."
      },
      "isApprovedForAll(address,address)": {
        "details": "See {IERC721-isApprovedForAll}."
      },
      "name()": {
        "details": "See {IERC721Metadata-name}."
      },
      "owner()": {
        "details": "Returns the address of the current owner."
      },
      "ownerOf(uint256)": {
        "details": "See {IERC721-ownerOf}."
      },
      "renounceOwnership()": {
        "details": "Leaves the contract without owner. It will not be possible to call `onlyOwner` functions anymore. Can only be called by the current owner. NOTE: Renouncing ownership will leave the contract without an owner, thereby removing any functionality that is only available to the owner."
      },
      "safeTransferFrom(address,address,uint256)": {
        "details": "See {IERC721-safeTransferFrom}."
      },
      "safeTransferFrom(address,address,uint256,bytes)": {
        "details": "See {IERC721-safeTransferFrom}."
      },
      "setApprovalForAll(address,bool)": {
        "details": "See {IERC721-setApprovalForAll}."
      },
      "supportsInterface(bytes4)": {
        "details": "See {IERC165-supportsInterface}."
      },
      "symbol()": {
        "details": "See {IERC721Metadata-symbol}."
      },
      "tokenURI(uint256)": {
        "details": "See {IERC721Metadata-tokenURI}."
      },
      "transferFrom(address,address,uint256)": {
        "details": "See {IERC721-transferFrom}."
      },
      "transferOwnership(address)": {
        "details": "Transfers ownership of the contract to a new account (`newOwner`). Can only be called by the current owner."
      }
    },
    "version": 1
  },
  "userdoc": {
    "kind": "user",
    "methods": {},
    "version": 1
  }
}